{
  "contractName": "ERC1155Handler",
  "abi": [
    {
      "inputs": [
        {
          "internalType": "address",
          "name": "bridgeAddress",
          "type": "address"
        }
      ],
      "stateMutability": "nonpayable",
      "type": "constructor"
    },
    {
      "inputs": [],
      "name": "_bridgeAddress",
      "outputs": [
        {
          "internalType": "address",
          "name": "",
          "type": "address"
        }
      ],
      "stateMutability": "view",
      "type": "function",
      "constant": true
    },
    {
      "inputs": [
        {
          "internalType": "address",
          "name": "",
          "type": "address"
        }
      ],
      "name": "_burnList",
      "outputs": [
        {
          "internalType": "bool",
          "name": "",
          "type": "bool"
        }
      ],
      "stateMutability": "view",
      "type": "function",
      "constant": true
    },
    {
      "inputs": [
        {
          "internalType": "address",
          "name": "",
          "type": "address"
        }
      ],
      "name": "_contractWhitelist",
      "outputs": [
        {
          "internalType": "bool",
          "name": "",
          "type": "bool"
        }
      ],
      "stateMutability": "view",
      "type": "function",
      "constant": true
    },
    {
      "inputs": [
        {
          "internalType": "bytes32",
          "name": "",
          "type": "bytes32"
        }
      ],
      "name": "_resourceIDToTokenContractAddress",
      "outputs": [
        {
          "internalType": "address",
          "name": "",
          "type": "address"
        }
      ],
      "stateMutability": "view",
      "type": "function",
      "constant": true
    },
    {
      "inputs": [
        {
          "internalType": "address",
          "name": "",
          "type": "address"
        }
      ],
      "name": "_tokenContractAddressToResourceID",
      "outputs": [
        {
          "internalType": "bytes32",
          "name": "",
          "type": "bytes32"
        }
      ],
      "stateMutability": "view",
      "type": "function",
      "constant": true
    },
    {
      "inputs": [
        {
          "internalType": "address",
          "name": "",
          "type": "address"
        },
        {
          "internalType": "address",
          "name": "",
          "type": "address"
        },
        {
          "internalType": "uint256[]",
          "name": "",
          "type": "uint256[]"
        },
        {
          "internalType": "uint256[]",
          "name": "",
          "type": "uint256[]"
        },
        {
          "internalType": "bytes",
          "name": "",
          "type": "bytes"
        }
      ],
      "name": "onERC1155BatchReceived",
      "outputs": [
        {
          "internalType": "bytes4",
          "name": "",
          "type": "bytes4"
        }
      ],
      "stateMutability": "nonpayable",
      "type": "function"
    },
    {
      "inputs": [
        {
          "internalType": "address",
          "name": "",
          "type": "address"
        },
        {
          "internalType": "address",
          "name": "",
          "type": "address"
        },
        {
          "internalType": "uint256",
          "name": "",
          "type": "uint256"
        },
        {
          "internalType": "uint256",
          "name": "",
          "type": "uint256"
        },
        {
          "internalType": "bytes",
          "name": "",
          "type": "bytes"
        }
      ],
      "name": "onERC1155Received",
      "outputs": [
        {
          "internalType": "bytes4",
          "name": "",
          "type": "bytes4"
        }
      ],
      "stateMutability": "nonpayable",
      "type": "function"
    },
    {
      "inputs": [
        {
          "internalType": "address",
          "name": "contractAddress",
          "type": "address"
        }
      ],
      "name": "setBurnable",
      "outputs": [],
      "stateMutability": "nonpayable",
      "type": "function"
    },
    {
      "inputs": [
        {
          "internalType": "bytes32",
          "name": "resourceID",
          "type": "bytes32"
        },
        {
          "internalType": "address",
          "name": "contractAddress",
          "type": "address"
        }
      ],
      "name": "setResource",
      "outputs": [],
      "stateMutability": "nonpayable",
      "type": "function"
    },
    {
      "inputs": [
        {
          "internalType": "bytes4",
          "name": "interfaceId",
          "type": "bytes4"
        }
      ],
      "name": "supportsInterface",
      "outputs": [
        {
          "internalType": "bool",
          "name": "",
          "type": "bool"
        }
      ],
      "stateMutability": "view",
      "type": "function",
      "constant": true
    },
    {
      "inputs": [
        {
          "internalType": "bytes32",
          "name": "resourceID",
          "type": "bytes32"
        },
        {
          "internalType": "address",
          "name": "depositer",
          "type": "address"
        },
        {
          "internalType": "bytes",
          "name": "data",
          "type": "bytes"
        }
      ],
      "name": "deposit",
      "outputs": [
        {
          "internalType": "bytes",
          "name": "metaData",
          "type": "bytes"
        }
      ],
      "stateMutability": "nonpayable",
      "type": "function"
    },
    {
      "inputs": [
        {
          "internalType": "bytes32",
          "name": "resourceID",
          "type": "bytes32"
        },
        {
          "internalType": "bytes",
          "name": "data",
          "type": "bytes"
        }
      ],
      "name": "executeProposal",
      "outputs": [],
      "stateMutability": "nonpayable",
      "type": "function"
    },
    {
      "inputs": [
        {
          "internalType": "bytes",
          "name": "data",
          "type": "bytes"
        }
      ],
      "name": "withdraw",
      "outputs": [],
      "stateMutability": "nonpayable",
      "type": "function"
    }
  ],
  "bytecode": "0x60a060405234801561001057600080fd5b506040516110be3803806110be83398101604081905261002f91610040565b6001600160a01b0316608052610070565b60006020828403121561005257600080fd5b81516001600160a01b038116811461006957600080fd5b9392505050565b60805161102c6100926000396000818161016a015261057b015261102c6000f3fe608060405234801561001057600080fd5b50600436106100cf5760003560e01c80637f79bea81161008c578063bc197c8111610066578063bc197c8114610205578063c8ba6c871461023d578063e248cff21461026b578063f23a6e611461027e57600080fd5b80637f79bea8146101af578063b07e54bb146101d2578063b8fa3736146101f257600080fd5b806301ffc9a7146100d457806307b7ed99146100fc5780630968f264146101115780630a6d55d814610124578063318c136e146101655780636a70d0811461018c575b600080fd5b6100e76100e23660046107c1565b61029d565b60405190151581526020015b60405180910390f35b61010f61010a366004610807565b6102d4565b005b61010f61011f3660046108e9565b6102e8565b61014d610132366004610926565b6000602081905290815260409020546001600160a01b031681565b6040516001600160a01b0390911681526020016100f3565b61014d7f000000000000000000000000000000000000000000000000000000000000000081565b6100e761019a366004610807565b60036020526000908152604090205460ff1681565b6100e76101bd366004610807565b60026020526000908152604090205460ff1681565b6101e56101e0366004610988565b61032e565b6040516100f39190610a40565b61010f610200366004610a53565b61041b565b610224610213366004610b0d565b63bc197c8160e01b95945050505050565b6040516001600160e01b031990911681526020016100f3565b61025d61024b366004610807565b60016020526000908152604090205481565b6040519081526020016100f3565b61010f610279366004610bbb565b610470565b61022461028c366004610c07565b63f23a6e6160e01b95945050505050565b60006001600160e01b03198216630271189760e51b14806102ce57506301ffc9a760e01b6001600160e01b03198316145b92915050565b6102dc610570565b6102e5816105ea565b50565b6102f0610570565b60008060608060608580602001905181019061030c9190610ccb565b939850919650945092509050610326853086868686610682565b505050505050565b6060610338610570565b60608061034784860186610db7565b60008981526020819052604090205491935091506001600160a01b0316806103c15760405162461bcd60e51b815260206004820152602260248201527f70726f7669646564207265736f75726365494420646f6573206e6f74206578696044820152611cdd60f21b60648201526084015b60405180910390fd5b6001600160a01b03811660009081526003602052604090205460ff16156103f3576103ee818885856106f3565b610410565b610410818830868660405180602001604052806000815250610682565b505050949350505050565b610423610570565b60008281526020818152604080832080546001600160a01b0319166001600160a01b039590951694851790559282526001808252838320949094556002905220805460ff19169091179055565b610478610570565b606080808061048985870187610e1b565b60208083015160008d81528083526040808220546001600160a01b031680835260029094529020549599509397509195509350909160ff1661051e5760405162461bcd60e51b815260206004820152602860248201527f70726f766964656420746f6b656e41646472657373206973206e6f74207768696044820152671d195b1a5cdd195960c21b60648201526084016103b8565b6001600160a01b03811660009081526003602052604090205460ff16156105545761054f818360601c888887610753565b610565565b61056581308460601c898988610682565b505050505050505050565b336001600160a01b037f000000000000000000000000000000000000000000000000000000000000000016146105e85760405162461bcd60e51b815260206004820152601e60248201527f73656e646572206d7573742062652062726964676520636f6e7472616374000060448201526064016103b8565b565b6001600160a01b03811660009081526002602052604090205460ff1661065e5760405162461bcd60e51b8152602060048201526024808201527f70726f766964656420636f6e7472616374206973206e6f742077686974656c696044820152631cdd195960e21b60648201526084016103b8565b6001600160a01b03166000908152600360205260409020805460ff19166001179055565b604051631759616b60e11b815286906001600160a01b03821690632eb2c2d6906106b89089908990899089908990600401610f03565b600060405180830381600087803b1580156106d257600080fd5b505af11580156106e6573d6000803e3d6000fd5b5050505050505050505050565b604051631ac8311560e21b815284906001600160a01b03821690636b20c4549061072590879087908790600401610f61565b600060405180830381600087803b15801561073f57600080fd5b505af1158015610565573d6000803e3d6000fd5b604051630fbfeffd60e11b815285906001600160a01b03821690631f7fdffa90610787908890889088908890600401610fa1565b600060405180830381600087803b1580156107a157600080fd5b505af11580156107b5573d6000803e3d6000fd5b50505050505050505050565b6000602082840312156107d357600080fd5b81356001600160e01b0319811681146107eb57600080fd5b9392505050565b6001600160a01b03811681146102e557600080fd5b60006020828403121561081957600080fd5b81356107eb816107f2565b634e487b7160e01b600052604160045260246000fd5b604051601f8201601f1916810167ffffffffffffffff8111828210171561086357610863610824565b604052919050565b600067ffffffffffffffff82111561088557610885610824565b50601f01601f191660200190565b600082601f8301126108a457600080fd5b81356108b76108b28261086b565b61083a565b8181528460208386010111156108cc57600080fd5b816020850160208301376000918101602001919091529392505050565b6000602082840312156108fb57600080fd5b813567ffffffffffffffff81111561091257600080fd5b61091e84828501610893565b949350505050565b60006020828403121561093857600080fd5b5035919050565b60008083601f84011261095157600080fd5b50813567ffffffffffffffff81111561096957600080fd5b60208301915083602082850101111561098157600080fd5b9250929050565b6000806000806060858703121561099e57600080fd5b8435935060208501356109b0816107f2565b9250604085013567ffffffffffffffff8111156109cc57600080fd5b6109d88782880161093f565b95989497509550505050565b60005b838110156109ff5781810151838201526020016109e7565b83811115610a0e576000848401525b50505050565b60008151808452610a2c8160208601602086016109e4565b601f01601f19169290920160200192915050565b6020815260006107eb6020830184610a14565b60008060408385031215610a6657600080fd5b823591506020830135610a78816107f2565b809150509250929050565b600067ffffffffffffffff821115610a9d57610a9d610824565b5060051b60200190565b600082601f830112610ab857600080fd5b81356020610ac86108b283610a83565b82815260059290921b84018101918181019086841115610ae757600080fd5b8286015b84811015610b025780358352918301918301610aeb565b509695505050505050565b600080600080600060a08688031215610b2557600080fd5b8535610b30816107f2565b94506020860135610b40816107f2565b9350604086013567ffffffffffffffff80821115610b5d57600080fd5b610b6989838a01610aa7565b94506060880135915080821115610b7f57600080fd5b610b8b89838a01610aa7565b93506080880135915080821115610ba157600080fd5b50610bae88828901610893565b9150509295509295909350565b600080600060408486031215610bd057600080fd5b83359250602084013567ffffffffffffffff811115610bee57600080fd5b610bfa8682870161093f565b9497909650939450505050565b600080600080600060a08688031215610c1f57600080fd5b8535610c2a816107f2565b94506020860135610c3a816107f2565b93506040860135925060608601359150608086013567ffffffffffffffff811115610c6457600080fd5b610bae88828901610893565b600082601f830112610c8157600080fd5b81516020610c916108b283610a83565b82815260059290921b84018101918181019086841115610cb057600080fd5b8286015b84811015610b025780518352918301918301610cb4565b600080600080600060a08688031215610ce357600080fd5b8551610cee816107f2565b6020870151909550610cff816107f2565b604087015190945067ffffffffffffffff80821115610d1d57600080fd5b610d2989838a01610c70565b94506060880151915080821115610d3f57600080fd5b610d4b89838a01610c70565b93506080880151915080821115610d6157600080fd5b508601601f81018813610d7357600080fd5b8051610d816108b28261086b565b818152896020838501011115610d9657600080fd5b610da78260208301602086016109e4565b8093505050509295509295909350565b60008060408385031215610dca57600080fd5b823567ffffffffffffffff80821115610de257600080fd5b610dee86838701610aa7565b93506020850135915080821115610e0457600080fd5b50610e1185828601610aa7565b9150509250929050565b60008060008060808587031215610e3157600080fd5b843567ffffffffffffffff80821115610e4957600080fd5b610e5588838901610aa7565b95506020870135915080821115610e6b57600080fd5b610e7788838901610aa7565b94506040870135915080821115610e8d57600080fd5b610e9988838901610893565b93506060870135915080821115610eaf57600080fd5b50610ebc87828801610893565b91505092959194509250565b600081518084526020808501945080840160005b83811015610ef857815187529582019590820190600101610edc565b509495945050505050565b6001600160a01b0386811682528516602082015260a060408201819052600090610f2f90830186610ec8565b8281036060840152610f418186610ec8565b90508281036080840152610f558185610a14565b98975050505050505050565b6001600160a01b0384168152606060208201819052600090610f8590830185610ec8565b8281036040840152610f978185610ec8565b9695505050505050565b6001600160a01b0385168152608060208201819052600090610fc590830186610ec8565b8281036040840152610fd78186610ec8565b90508281036060840152610feb8185610a14565b97965050505050505056fea264697066735822122007b96e4bca7a06600a2bbbe6a1d8cdf76b9654bb3056d64e0ca5bd7d0128e76464736f6c634300080b0033",
  "immutableReferences": {
    "10398": [
      {
        "length": 32,
        "start": 362
      },
      {
        "length": 32,
        "start": 1403
      }
    ]
  },
  "source": "// SPDX-License-Identifier: LGPL-3.0-only\npragma solidity 0.8.11;\npragma experimental ABIEncoderV2;\n\nimport \"../interfaces/IDepositExecute.sol\";\nimport \"./HandlerHelpers.sol\";\nimport \"../ERC1155Safe.sol\";\nimport \"@openzeppelin/contracts/utils/introspection/ERC165Checker.sol\";\nimport \"@openzeppelin/contracts/token/ERC1155/utils/ERC1155Holder.sol\";\nimport \"@openzeppelin/contracts/token/ERC1155/extensions/IERC1155MetadataURI.sol\";\n\ncontract ERC1155Handler is IDepositExecute, HandlerHelpers, ERC1155Safe, ERC1155Holder {\n    using ERC165Checker for address;\n\n    bytes4 private constant _INTERFACE_ERC1155_METADATA = 0x0e89341c;\n    bytes private constant EMPTY_BYTES = \"\";\n\n    /**\n        @param bridgeAddress Contract address of previously deployed Bridge.\n     */\n    constructor(\n        address bridgeAddress\n    ) public HandlerHelpers(bridgeAddress) {\n    }\n\n    /**\n        @notice A deposit is initiatied by making a deposit in the Bridge contract.\n        @param resourceID ResourceID used to find address of token to be used for deposit.\n        @param depositer Address of account making the deposit in the Bridge contract.\n        @param data Consists of ABI-encoded arrays of tokenIDs and amounts.\n     */\n    function deposit(bytes32 resourceID, address depositer, bytes calldata data) external override onlyBridge returns (bytes memory metaData) {\n        uint[] memory tokenIDs;\n        uint[] memory amounts;\n\n        (tokenIDs, amounts) = abi.decode(data, (uint[], uint[]));\n\n        address tokenAddress = _resourceIDToTokenContractAddress[resourceID];\n        require(tokenAddress != address(0), \"provided resourceID does not exist\");\n\n        if (_burnList[tokenAddress]) {\n            burnBatchERC1155(tokenAddress, depositer, tokenIDs, amounts);\n        } else {\n            lockBatchERC1155(tokenAddress, depositer, address(this), tokenIDs, amounts, EMPTY_BYTES);\n        }\n    }\n\n    /**\n        @notice Proposal execution should be initiated when a proposal is finalized in the Bridge contract.\n        by a relayer on the deposit's destination chain.\n        @param data Consists of ABI-encoded {tokenIDs}, {amounts}, {recipient},\n        and {transferData} of types uint[], uint[], bytes, bytes.\n     */\n    function executeProposal(bytes32 resourceID, bytes calldata data) external override onlyBridge {\n        uint[] memory tokenIDs;\n        uint[] memory amounts;\n        bytes memory recipient;\n        bytes memory transferData;\n\n        (tokenIDs, amounts, recipient, transferData) = abi.decode(data, (uint[], uint[], bytes, bytes));\n\n        bytes20 recipientAddress;\n\n        assembly {\n            recipientAddress := mload(add(recipient, 0x20))\n        }\n\n        address tokenAddress = _resourceIDToTokenContractAddress[resourceID];\n        require(_contractWhitelist[address(tokenAddress)], \"provided tokenAddress is not whitelisted\");\n\n        if (_burnList[tokenAddress]) {\n            mintBatchERC1155(tokenAddress, address(recipientAddress), tokenIDs, amounts, transferData);\n        } else {\n            releaseBatchERC1155(tokenAddress, address(this), address(recipientAddress), tokenIDs, amounts, transferData);\n        }\n    }\n\n    /**\n        @notice Used to manually release ERC1155 tokens from ERC1155Safe.\n        @param data Consists of ABI-encoded {tokenAddress}, {recipient}, {tokenIDs}, \n        {amounts}, and {transferData} of types address, address, uint[], uint[], bytes.\n     */\n    function withdraw(bytes memory data) external override onlyBridge {\n        address tokenAddress;\n        address recipient;\n        uint[] memory tokenIDs;\n        uint[] memory amounts;\n        bytes memory transferData;\n\n        (tokenAddress, recipient, tokenIDs, amounts, transferData) = abi.decode(data, (address, address, uint[], uint[], bytes));\n\n        releaseBatchERC1155(tokenAddress, address(this), recipient, tokenIDs, amounts, transferData);\n    }\n}\n",
  "sourcePath": "/home/isaiah/codes/NFT/chainbridge/chainbridge-solidity/contracts/handlers/ERC1155Handler.sol",
  "compiler": {
    "name": "solc",
    "version": "0.8.11+commit.d7f03943.Emscripten.clang"
  },
  "schemaVersion": "3.4.3",
  "updatedAt": "2022-03-02T16:20:59.877Z",
  "networkType": "ethereum",
  "devdoc": {
    "kind": "dev",
    "methods": {
      "constructor": {
        "params": {
          "bridgeAddress": "Contract address of previously deployed Bridge."
        }
      },
      "deposit(bytes32,address,bytes)": {
        "params": {
          "data": "Consists of ABI-encoded arrays of tokenIDs and amounts.",
          "depositer": "Address of account making the deposit in the Bridge contract.",
          "resourceID": "ResourceID used to find address of token to be used for deposit."
        }
      },
      "executeProposal(bytes32,bytes)": {
        "params": {
          "data": "Consists of ABI-encoded {tokenIDs}, {amounts}, {recipient}, and {transferData} of types uint[], uint[], bytes, bytes."
        }
      },
      "setBurnable(address)": {
        "params": {
          "contractAddress": "Address of contract to be used when making or executing deposits."
        }
      },
      "setResource(bytes32,address)": {
        "params": {
          "contractAddress": "Address of contract to be called when a deposit is made and a deposited is executed.",
          "resourceID": "ResourceID to be used when making deposits."
        }
      },
      "supportsInterface(bytes4)": {
        "details": "See {IERC165-supportsInterface}."
      },
      "withdraw(bytes)": {
        "params": {
          "data": "Consists of ABI-encoded {tokenAddress}, {recipient}, {tokenIDs},  {amounts}, and {transferData} of types address, address, uint[], uint[], bytes."
        }
      }
    },
    "version": 1
  },
  "userdoc": {
    "kind": "user",
    "methods": {
      "deposit(bytes32,address,bytes)": {
        "notice": "A deposit is initiatied by making a deposit in the Bridge contract."
      },
      "executeProposal(bytes32,bytes)": {
        "notice": "Proposal execution should be initiated when a proposal is finalized in the Bridge contract. by a relayer on the deposit's destination chain."
      },
      "setBurnable(address)": {
        "notice": "First verifies {contractAddress} is whitelisted, then sets {_burnList}[{contractAddress}] to true."
      },
      "setResource(bytes32,address)": {
        "notice": "First verifies {_resourceIDToContractAddress}[{resourceID}] and {_contractAddressToResourceID}[{contractAddress}] are not already set, then sets {_resourceIDToContractAddress} with {contractAddress}, {_contractAddressToResourceID} with {resourceID}, and {_contractWhitelist} to true for {contractAddress}."
      },
      "withdraw(bytes)": {
        "notice": "Used to manually release ERC1155 tokens from ERC1155Safe."
      }
    },
    "version": 1
  }
}