{
  "contractName": "ERC721Handler",
  "abi": [
    {
      "inputs": [
        {
          "internalType": "address",
          "name": "bridgeAddress",
          "type": "address"
        }
      ],
      "stateMutability": "nonpayable",
      "type": "constructor"
    },
    {
      "inputs": [],
      "name": "_bridgeAddress",
      "outputs": [
        {
          "internalType": "address",
          "name": "",
          "type": "address"
        }
      ],
      "stateMutability": "view",
      "type": "function",
      "constant": true
    },
    {
      "inputs": [
        {
          "internalType": "address",
          "name": "",
          "type": "address"
        }
      ],
      "name": "_burnList",
      "outputs": [
        {
          "internalType": "bool",
          "name": "",
          "type": "bool"
        }
      ],
      "stateMutability": "view",
      "type": "function",
      "constant": true
    },
    {
      "inputs": [
        {
          "internalType": "address",
          "name": "",
          "type": "address"
        }
      ],
      "name": "_contractWhitelist",
      "outputs": [
        {
          "internalType": "bool",
          "name": "",
          "type": "bool"
        }
      ],
      "stateMutability": "view",
      "type": "function",
      "constant": true
    },
    {
      "inputs": [
        {
          "internalType": "bytes32",
          "name": "",
          "type": "bytes32"
        }
      ],
      "name": "_resourceIDToTokenContractAddress",
      "outputs": [
        {
          "internalType": "address",
          "name": "",
          "type": "address"
        }
      ],
      "stateMutability": "view",
      "type": "function",
      "constant": true
    },
    {
      "inputs": [
        {
          "internalType": "address",
          "name": "",
          "type": "address"
        }
      ],
      "name": "_tokenContractAddressToResourceID",
      "outputs": [
        {
          "internalType": "bytes32",
          "name": "",
          "type": "bytes32"
        }
      ],
      "stateMutability": "view",
      "type": "function",
      "constant": true
    },
    {
      "inputs": [
        {
          "internalType": "address",
          "name": "contractAddress",
          "type": "address"
        }
      ],
      "name": "setBurnable",
      "outputs": [],
      "stateMutability": "nonpayable",
      "type": "function"
    },
    {
      "inputs": [
        {
          "internalType": "bytes32",
          "name": "resourceID",
          "type": "bytes32"
        },
        {
          "internalType": "address",
          "name": "contractAddress",
          "type": "address"
        }
      ],
      "name": "setResource",
      "outputs": [],
      "stateMutability": "nonpayable",
      "type": "function"
    },
    {
      "inputs": [
        {
          "internalType": "bytes32",
          "name": "resourceID",
          "type": "bytes32"
        },
        {
          "internalType": "address",
          "name": "depositer",
          "type": "address"
        },
        {
          "internalType": "bytes",
          "name": "data",
          "type": "bytes"
        }
      ],
      "name": "deposit",
      "outputs": [
        {
          "internalType": "bytes",
          "name": "metaData",
          "type": "bytes"
        }
      ],
      "stateMutability": "nonpayable",
      "type": "function"
    },
    {
      "inputs": [
        {
          "internalType": "bytes32",
          "name": "resourceID",
          "type": "bytes32"
        },
        {
          "internalType": "bytes",
          "name": "data",
          "type": "bytes"
        }
      ],
      "name": "executeProposal",
      "outputs": [],
      "stateMutability": "nonpayable",
      "type": "function"
    },
    {
      "inputs": [
        {
          "internalType": "bytes",
          "name": "data",
          "type": "bytes"
        }
      ],
      "name": "withdraw",
      "outputs": [],
      "stateMutability": "nonpayable",
      "type": "function"
    }
  ],
  "bytecode": "0x60a060405234801561001057600080fd5b50604051610e43380380610e4383398101604081905261002f91610040565b6001600160a01b0316608052610070565b60006020828403121561005257600080fd5b81516001600160a01b038116811461006957600080fd5b9392505050565b608051610db16100926000396000818161011601526105850152610db16000f3fe608060405234801561001057600080fd5b506004361061009e5760003560e01c80637f79bea8116100665780637f79bea81461016b578063b07e54bb1461018e578063b8fa3736146101ae578063c8ba6c87146101c1578063e248cff2146101ef57600080fd5b806307b7ed99146100a35780630968f264146100b85780630a6d55d8146100cb578063318c136e146101115780636a70d08114610138575b600080fd5b6100b66100b13660046108ea565b610202565b005b6100b66100c636600461097d565b610216565b6100f46100d93660046109fd565b6000602081905290815260409020546001600160a01b031681565b6040516001600160a01b0390911681526020015b60405180910390f35b6100f47f000000000000000000000000000000000000000000000000000000000000000081565b61015b6101463660046108ea565b60036020526000908152604090205460ff1681565b6040519015158152602001610108565b61015b6101793660046108ea565b60026020526000908152604090205460ff1681565b6101a161019c366004610a5f565b610250565b6040516101089190610b13565b6100b66101bc366004610b26565b610391565b6101e16101cf3660046108ea565b60016020526000908152604090205481565b604051908152602001610108565b6100b66101fd366004610b56565b6103e6565b61020a61057a565b610213816105f4565b50565b61021e61057a565b6000806000838060200190518101906102379190610ba2565b9194509250905061024a8330848461068c565b50505050565b606061025a61057a565b6000610268838501856109fd565b600087815260208181526040808320546001600160a01b03168084526002909252909120549192509060ff166102b95760405162461bcd60e51b81526004016102b090610be5565b60405180910390fd5b6102d36001600160a01b038216635b5e139f60e01b610701565b1561034b5760405163c87b56dd60e01b81526004810183905281906001600160a01b0382169063c87b56dd90602401600060405180830381865afa15801561031f573d6000803e3d6000fd5b505050506040513d6000823e601f3d908101601f191682016040526103479190810190610c2d565b9350505b6001600160a01b03811660009081526003602052604090205460ff161561037b576103768183610726565b610387565b6103878187308561068c565b5050949350505050565b61039961057a565b60008281526020818152604080832080546001600160a01b0319166001600160a01b039590951694851790559282526001808252838320949094556002905220805460ff19169091179055565b6103ee61057a565b600080606081808261040287890189610ca4565b9096509450610412856040610cc6565b9250610421836040898b610cec565b8080601f0160208091040260200160405190810160405280939291908181526020018383808284376000920191909152509296506104679250899150859050818b610cec565b81019061047491906109fd565b91508787610483856020610cc6565b9084610490876020610cc6565b61049a9190610cc6565b926104a793929190610cec565b8080601f01602080910402602001604051908101604052809392919081815260200183838082843760009201829052506020898101518f83528282526040808420546001600160a01b0316808552600290935290922054959650909490935060ff16915061052990505760405162461bcd60e51b81526004016102b090610be5565b6001600160a01b03811660009081526003602052604090205460ff161561055e57610559818360601c8a86610787565b61056d565b61056d81308460601c8b61068c565b5050505050505050505050565b336001600160a01b037f000000000000000000000000000000000000000000000000000000000000000016146105f25760405162461bcd60e51b815260206004820152601e60248201527f73656e646572206d7573742062652062726964676520636f6e7472616374000060448201526064016102b0565b565b6001600160a01b03811660009081526002602052604090205460ff166106685760405162461bcd60e51b8152602060048201526024808201527f70726f766964656420636f6e7472616374206973206e6f742077686974656c696044820152631cdd195960e21b60648201526084016102b0565b6001600160a01b03166000908152600360205260409020805460ff19166001179055565b6040516323b872dd60e01b81526001600160a01b0384811660048301528381166024830152604482018390528591908216906323b872dd906064015b600060405180830381600087803b1580156106e257600080fd5b505af11580156106f6573d6000803e3d6000fd5b505050505050505050565b600061070c836107b9565b801561071d575061071d83836107ec565b90505b92915050565b604051630852cd8d60e31b81526004810182905282906001600160a01b038216906342966c6890602401600060405180830381600087803b15801561076a57600080fd5b505af115801561077e573d6000803e3d6000fd5b50505050505050565b6040516334ff261960e21b815284906001600160a01b0382169063d3fc9864906106c890879087908790600401610d16565b60006107cc826301ffc9a760e01b6107ec565b801561072057506107e5826001600160e01b03196107ec565b1592915050565b604080516001600160e01b0319831660248083019190915282518083039091018152604490910182526020810180516001600160e01b03166301ffc9a760e01b179052905160009190829081906001600160a01b0387169061753090610853908690610d3d565b6000604051808303818686fa925050503d806000811461088f576040519150601f19603f3d011682016040523d82523d6000602084013e610894565b606091505b50915091506020815110156108af5760009350505050610720565b8180156108cb5750808060200190518101906108cb9190610d59565b9695505050505050565b6001600160a01b038116811461021357600080fd5b6000602082840312156108fc57600080fd5b8135610907816108d5565b9392505050565b634e487b7160e01b600052604160045260246000fd5b604051601f8201601f1916810167ffffffffffffffff8111828210171561094d5761094d61090e565b604052919050565b600067ffffffffffffffff82111561096f5761096f61090e565b50601f01601f191660200190565b60006020828403121561098f57600080fd5b813567ffffffffffffffff8111156109a657600080fd5b8201601f810184136109b757600080fd5b80356109ca6109c582610955565b610924565b8181528560208385010111156109df57600080fd5b81602084016020830137600091810160200191909152949350505050565b600060208284031215610a0f57600080fd5b5035919050565b60008083601f840112610a2857600080fd5b50813567ffffffffffffffff811115610a4057600080fd5b602083019150836020828501011115610a5857600080fd5b9250929050565b60008060008060608587031215610a7557600080fd5b843593506020850135610a87816108d5565b9250604085013567ffffffffffffffff811115610aa357600080fd5b610aaf87828801610a16565b95989497509550505050565b60005b83811015610ad6578181015183820152602001610abe565b8381111561024a5750506000910152565b60008151808452610aff816020860160208601610abb565b601f01601f19169290920160200192915050565b60208152600061071d6020830184610ae7565b60008060408385031215610b3957600080fd5b823591506020830135610b4b816108d5565b809150509250929050565b600080600060408486031215610b6b57600080fd5b83359250602084013567ffffffffffffffff811115610b8957600080fd5b610b9586828701610a16565b9497909650939450505050565b600080600060608486031215610bb757600080fd5b8351610bc2816108d5565b6020850151909350610bd3816108d5565b80925050604084015190509250925092565b60208082526028908201527f70726f766964656420746f6b656e41646472657373206973206e6f74207768696040820152671d195b1a5cdd195960c21b606082015260800190565b600060208284031215610c3f57600080fd5b815167ffffffffffffffff811115610c5657600080fd5b8201601f81018413610c6757600080fd5b8051610c756109c582610955565b818152856020838501011115610c8a57600080fd5b610c9b826020830160208601610abb565b95945050505050565b60008060408385031215610cb757600080fd5b50508035926020909101359150565b60008219821115610ce757634e487b7160e01b600052601160045260246000fd5b500190565b60008085851115610cfc57600080fd5b83861115610d0957600080fd5b5050820193919092039150565b60018060a01b0384168152826020820152606060408201526000610c9b6060830184610ae7565b60008251610d4f818460208701610abb565b9190910192915050565b600060208284031215610d6b57600080fd5b8151801515811461090757600080fdfea2646970667358221220f89995c06ca1976e3c71609c15d1ede970dd028f0d19ece29a199a2ea02ac62b64736f6c634300080b0033",
  "immutableReferences": {
    "10398": [
      {
        "length": 32,
        "start": 278
      },
      {
        "length": 32,
        "start": 1413
      }
    ]
  },
  "source": "// SPDX-License-Identifier: LGPL-3.0-only\npragma solidity 0.8.11;\npragma experimental ABIEncoderV2;\n\nimport \"../interfaces/IDepositExecute.sol\";\nimport \"./HandlerHelpers.sol\";\nimport \"../ERC721Safe.sol\";\nimport \"@openzeppelin/contracts/utils/introspection/ERC165Checker.sol\";\nimport \"@openzeppelin/contracts/token/ERC721/extensions/IERC721Metadata.sol\";\n\n\n/**\n    @title Handles ERC721 deposits and deposit executions.\n    @author ChainSafe Systems.\n    @notice This contract is intended to be used with the Bridge contract.\n */\ncontract ERC721Handler is IDepositExecute, HandlerHelpers, ERC721Safe {\n    using ERC165Checker for address;\n\n    bytes4 private constant _INTERFACE_ERC721_METADATA = 0x5b5e139f;\n\n    /**\n        @param bridgeAddress Contract address of previously deployed Bridge.\n     */\n    constructor(\n        address bridgeAddress\n    ) public HandlerHelpers(bridgeAddress) {\n    }\n\n    /**\n        @notice A deposit is initiatied by making a deposit in the Bridge contract.\n        @param resourceID ResourceID used to find address of token to be used for deposit.\n        @param depositer Address of account making the deposit in the Bridge contract.\n        @param data Consists of {tokenID} padded to 32 bytes.\n        @notice Data passed into the function should be constructed as follows:\n        tokenID                                     uint256    bytes    0  - 32\n        @notice If the corresponding {tokenAddress} for the parsed {resourceID} supports {_INTERFACE_ERC721_METADATA},\n        then {metaData} will be set according to the {tokenURI} method in the token contract.\n        @dev Depending if the corresponding {tokenAddress} for the parsed {resourceID} is\n        marked true in {_burnList}, deposited tokens will be burned, if not, they will be locked.\n        @return metaData : the deposited token metadata acquired by calling a {tokenURI} method in the token contract.\n     */\n    function deposit(bytes32    resourceID,\n                    address     depositer,\n                    bytes       calldata data\n                    ) external override onlyBridge returns (bytes memory metaData) {\n        uint         tokenID;\n\n        (tokenID) = abi.decode(data, (uint));\n\n        address tokenAddress = _resourceIDToTokenContractAddress[resourceID];\n        require(_contractWhitelist[tokenAddress], \"provided tokenAddress is not whitelisted\");\n\n        // Check if the contract supports metadata, fetch it if it does\n        if (tokenAddress.supportsInterface(_INTERFACE_ERC721_METADATA)) {\n            IERC721Metadata erc721 = IERC721Metadata(tokenAddress);\n            metaData = bytes(erc721.tokenURI(tokenID));\n        }\n\n        if (_burnList[tokenAddress]) {\n            burnERC721(tokenAddress, tokenID);\n        } else {\n            lockERC721(tokenAddress, depositer, address(this), tokenID);\n        }\n    }\n\n    /**\n        @notice Proposal execution should be initiated when a proposal is finalized in the Bridge contract.\n        by a relayer on the deposit's destination chain.\n        @param data Consists of {tokenID}, {resourceID}, {lenDestinationRecipientAddress},\n        {destinationRecipientAddress}, {lenMeta}, and {metaData} all padded to 32 bytes.\n        @notice Data passed into the function should be constructed as follows:\n        tokenID                                     uint256    bytes    0  - 32\n        destinationRecipientAddress     length      uint256    bytes    32 - 64\n        destinationRecipientAddress                   bytes    bytes    64 - (64 + len(destinationRecipientAddress))\n        metadata                        length      uint256    bytes    (64 + len(destinationRecipientAddress)) - (64 + len(destinationRecipientAddress) + 32)\n        metadata                                      bytes    bytes    (64 + len(destinationRecipientAddress) + 32) - END\n     */\n    function executeProposal(bytes32 resourceID, bytes calldata data) external override onlyBridge {\n        uint         tokenID;\n        uint         lenDestinationRecipientAddress;\n        bytes memory destinationRecipientAddress;\n        uint         offsetMetaData;\n        uint         lenMetaData;\n        bytes memory metaData;\n\n        (tokenID, lenDestinationRecipientAddress) = abi.decode(data, (uint, uint));\n        offsetMetaData = 64 + lenDestinationRecipientAddress;\n        destinationRecipientAddress = bytes(data[64:offsetMetaData]);\n        lenMetaData = abi.decode(data[offsetMetaData:], (uint));\n        metaData = bytes(data[offsetMetaData + 32:offsetMetaData + 32 + lenMetaData]);\n\n        bytes20 recipientAddress;\n\n        assembly {\n            recipientAddress := mload(add(destinationRecipientAddress, 0x20))\n        }\n\n        address tokenAddress = _resourceIDToTokenContractAddress[resourceID];\n        require(_contractWhitelist[address(tokenAddress)], \"provided tokenAddress is not whitelisted\");\n\n        if (_burnList[tokenAddress]) {\n            mintERC721(tokenAddress, address(recipientAddress), tokenID, metaData);\n        } else {\n            releaseERC721(tokenAddress, address(this), address(recipientAddress), tokenID);\n        }\n    }\n\n    /**\n        @notice Used to manually release ERC721 tokens from ERC721Safe.\n        @param data Consists of {tokenAddress}, {recipient}, and {tokenID} all padded to 32 bytes.\n        @notice Data passed into the function should be constructed as follows:\n        tokenAddress                           address     bytes  0 - 32\n        recipient                              address     bytes  32 - 64\n        tokenID                                uint        bytes  64 - 96\n     */\n    function withdraw(bytes memory data) external override onlyBridge {\n        address tokenAddress;\n        address recipient;\n        uint tokenID;\n\n        (tokenAddress, recipient, tokenID) = abi.decode(data, (address, address, uint));\n\n        releaseERC721(tokenAddress, address(this), recipient, tokenID);\n    }\n}\n",
  "sourcePath": "/home/isaiah/codes/NFT/chainbridge/chainbridge-solidity/contracts/handlers/ERC721Handler.sol",
  "compiler": {
    "name": "solc",
    "version": "0.8.11+commit.d7f03943.Emscripten.clang"
  },
  "schemaVersion": "3.4.3",
  "updatedAt": "2022-03-02T16:20:59.871Z",
  "networkType": "ethereum",
  "devdoc": {
    "author": "ChainSafe Systems.",
    "kind": "dev",
    "methods": {
      "constructor": {
        "params": {
          "bridgeAddress": "Contract address of previously deployed Bridge."
        }
      },
      "deposit(bytes32,address,bytes)": {
        "details": "Depending if the corresponding {tokenAddress} for the parsed {resourceID} is marked true in {_burnList}, deposited tokens will be burned, if not, they will be locked.",
        "params": {
          "data": "Consists of {tokenID} padded to 32 bytes.",
          "depositer": "Address of account making the deposit in the Bridge contract.",
          "resourceID": "ResourceID used to find address of token to be used for deposit."
        },
        "returns": {
          "metaData": ": the deposited token metadata acquired by calling a {tokenURI} method in the token contract."
        }
      },
      "executeProposal(bytes32,bytes)": {
        "params": {
          "data": "Consists of {tokenID}, {resourceID}, {lenDestinationRecipientAddress}, {destinationRecipientAddress}, {lenMeta}, and {metaData} all padded to 32 bytes."
        }
      },
      "setBurnable(address)": {
        "params": {
          "contractAddress": "Address of contract to be used when making or executing deposits."
        }
      },
      "setResource(bytes32,address)": {
        "params": {
          "contractAddress": "Address of contract to be called when a deposit is made and a deposited is executed.",
          "resourceID": "ResourceID to be used when making deposits."
        }
      },
      "withdraw(bytes)": {
        "params": {
          "data": "Consists of {tokenAddress}, {recipient}, and {tokenID} all padded to 32 bytes."
        }
      }
    },
    "title": "Handles ERC721 deposits and deposit executions.",
    "version": 1
  },
  "userdoc": {
    "kind": "user",
    "methods": {
      "deposit(bytes32,address,bytes)": {
        "notice": "A deposit is initiatied by making a deposit in the Bridge contract.Data passed into the function should be constructed as follows: tokenID                                     uint256    bytes    0  - 32If the corresponding {tokenAddress} for the parsed {resourceID} supports {_INTERFACE_ERC721_METADATA}, then {metaData} will be set according to the {tokenURI} method in the token contract."
      },
      "executeProposal(bytes32,bytes)": {
        "notice": "Proposal execution should be initiated when a proposal is finalized in the Bridge contract. by a relayer on the deposit's destination chain.Data passed into the function should be constructed as follows: tokenID                                     uint256    bytes    0  - 32 destinationRecipientAddress     length      uint256    bytes    32 - 64 destinationRecipientAddress                   bytes    bytes    64 - (64 + len(destinationRecipientAddress)) metadata                        length      uint256    bytes    (64 + len(destinationRecipientAddress)) - (64 + len(destinationRecipientAddress) + 32) metadata                                      bytes    bytes    (64 + len(destinationRecipientAddress) + 32) - END"
      },
      "setBurnable(address)": {
        "notice": "First verifies {contractAddress} is whitelisted, then sets {_burnList}[{contractAddress}] to true."
      },
      "setResource(bytes32,address)": {
        "notice": "First verifies {_resourceIDToContractAddress}[{resourceID}] and {_contractAddressToResourceID}[{contractAddress}] are not already set, then sets {_resourceIDToContractAddress} with {contractAddress}, {_contractAddressToResourceID} with {resourceID}, and {_contractWhitelist} to true for {contractAddress}."
      },
      "withdraw(bytes)": {
        "notice": "Used to manually release ERC721 tokens from ERC721Safe.Data passed into the function should be constructed as follows: tokenAddress                           address     bytes  0 - 32 recipient                              address     bytes  32 - 64 tokenID                                uint        bytes  64 - 96"
      }
    },
    "notice": "This contract is intended to be used with the Bridge contract.",
    "version": 1
  }
}