{
  "contractName": "GenericHandler",
  "abi": [
    {
      "inputs": [
        {
          "internalType": "address",
          "name": "bridgeAddress",
          "type": "address"
        }
      ],
      "stateMutability": "nonpayable",
      "type": "constructor"
    },
    {
      "inputs": [],
      "name": "_bridgeAddress",
      "outputs": [
        {
          "internalType": "address",
          "name": "",
          "type": "address"
        }
      ],
      "stateMutability": "view",
      "type": "function"
    },
    {
      "inputs": [
        {
          "internalType": "address",
          "name": "",
          "type": "address"
        }
      ],
      "name": "_contractAddressToDepositFunctionDepositerOffset",
      "outputs": [
        {
          "internalType": "uint256",
          "name": "",
          "type": "uint256"
        }
      ],
      "stateMutability": "view",
      "type": "function"
    },
    {
      "inputs": [
        {
          "internalType": "address",
          "name": "",
          "type": "address"
        }
      ],
      "name": "_contractAddressToDepositFunctionSignature",
      "outputs": [
        {
          "internalType": "bytes4",
          "name": "",
          "type": "bytes4"
        }
      ],
      "stateMutability": "view",
      "type": "function"
    },
    {
      "inputs": [
        {
          "internalType": "address",
          "name": "",
          "type": "address"
        }
      ],
      "name": "_contractAddressToExecuteFunctionSignature",
      "outputs": [
        {
          "internalType": "bytes4",
          "name": "",
          "type": "bytes4"
        }
      ],
      "stateMutability": "view",
      "type": "function"
    },
    {
      "inputs": [
        {
          "internalType": "address",
          "name": "",
          "type": "address"
        }
      ],
      "name": "_contractAddressToResourceID",
      "outputs": [
        {
          "internalType": "bytes32",
          "name": "",
          "type": "bytes32"
        }
      ],
      "stateMutability": "view",
      "type": "function"
    },
    {
      "inputs": [
        {
          "internalType": "address",
          "name": "",
          "type": "address"
        }
      ],
      "name": "_contractWhitelist",
      "outputs": [
        {
          "internalType": "bool",
          "name": "",
          "type": "bool"
        }
      ],
      "stateMutability": "view",
      "type": "function"
    },
    {
      "inputs": [
        {
          "internalType": "bytes32",
          "name": "",
          "type": "bytes32"
        }
      ],
      "name": "_resourceIDToContractAddress",
      "outputs": [
        {
          "internalType": "address",
          "name": "",
          "type": "address"
        }
      ],
      "stateMutability": "view",
      "type": "function"
    },
    {
      "inputs": [
        {
          "internalType": "bytes32",
          "name": "resourceID",
          "type": "bytes32"
        },
        {
          "internalType": "address",
          "name": "contractAddress",
          "type": "address"
        },
        {
          "internalType": "bytes4",
          "name": "depositFunctionSig",
          "type": "bytes4"
        },
        {
          "internalType": "uint256",
          "name": "depositFunctionDepositerOffset",
          "type": "uint256"
        },
        {
          "internalType": "bytes4",
          "name": "executeFunctionSig",
          "type": "bytes4"
        }
      ],
      "name": "setResource",
      "outputs": [],
      "stateMutability": "nonpayable",
      "type": "function"
    },
    {
      "inputs": [
        {
          "internalType": "bytes32",
          "name": "resourceID",
          "type": "bytes32"
        },
        {
          "internalType": "address",
          "name": "depositer",
          "type": "address"
        },
        {
          "internalType": "bytes",
          "name": "data",
          "type": "bytes"
        }
      ],
      "name": "deposit",
      "outputs": [
        {
          "internalType": "bytes",
          "name": "",
          "type": "bytes"
        }
      ],
      "stateMutability": "nonpayable",
      "type": "function"
    },
    {
      "inputs": [
        {
          "internalType": "bytes32",
          "name": "resourceID",
          "type": "bytes32"
        },
        {
          "internalType": "bytes",
          "name": "data",
          "type": "bytes"
        }
      ],
      "name": "executeProposal",
      "outputs": [],
      "stateMutability": "nonpayable",
      "type": "function"
    }
  ],
  "bytecode": "0x60a060405234801561001057600080fd5b50604051610b2f380380610b2f83398101604081905261002f91610040565b6001600160a01b0316608052610070565b60006020828403121561005257600080fd5b81516001600160a01b038116811461006957600080fd5b9392505050565b608051610a9e6100916000396000818160a801526106f90152610a9e6000f3fe608060405234801561001057600080fd5b506004361061009e5760003560e01c8063c54c2a1111610066578063c54c2a11146101a4578063cb624463146101cd578063de319d99146101f0578063e248cff214610205578063ec97d3b41461021857600080fd5b8063318c136e146100a35780637f79bea8146100e7578063a5c3a9851461011a578063aa50800b14610156578063b07e54bb14610184575b600080fd5b6100ca7f000000000000000000000000000000000000000000000000000000000000000081565b6040516001600160a01b0390911681526020015b60405180910390f35b61010a6100f5366004610784565b60056020526000908152604090205460ff1681565b60405190151581526020016100de565b61013d610128366004610784565b60046020526000908152604090205460e01b81565b6040516001600160e01b031990911681526020016100de565b610176610164366004610784565b60036020526000908152604090205481565b6040519081526020016100de565b6101976101923660046107ef565b610238565b6040516100de9190610879565b6100ca6101b23660046108ac565b6000602081905290815260409020546001600160a01b031681565b61013d6101db366004610784565b60026020526000908152604090205460e01b81565b6102036101fe3660046108dd565b610491565b005b610203610213366004610934565b610524565b610176610226366004610784565b60016020526000908152604090205481565b60606102426106ee565b60006060610252848601866108ac565b9150846020856102628583610980565b9261026f939291906109a6565b8080601f01602080910402602001604051908101604052809392919081815260200183838082843760009201829052508b815260208181526040808320546001600160a01b0316808452600390925290912054949550939250508115905061033b57828101602001516001600160a01b038916606082901c146103395760405162461bcd60e51b815260206004820152601f60248201527f696e636f7272656374206465706f736974657220696e2074686520646174610060448201526064015b60405180910390fd5b505b6001600160a01b03821660009081526005602052604090205460ff166103735760405162461bcd60e51b8152600401610330906109d0565b6001600160a01b03821660009081526002602052604090205460e01b6001600160e01b031981161561048357600081856040516020016103b4929190610a1b565b6040516020818303038152906040529050600080856001600160a01b0316836040516103e09190610a4c565b6000604051808303816000865af19150503d806000811461041d576040519150601f19603f3d011682016040523d82523d6000602084013e610422565b606091505b5091509150816104745760405162461bcd60e51b815260206004820152601e60248201527f63616c6c20746f20636f6e747261637441646472657373206661696c656400006044820152606401610330565b97506104899650505050505050565b50505050505b949350505050565b6104996106ee565b60008581526020818152604080832080546001600160a01b0319166001600160a01b0398909816978817905595825260018082528683209790975560028152858220805463ffffffff1990811660e097881c1790915560038252868320949094556004815285822080549094169290941c91909117909155600590915220805460ff19169091179055565b61052c6106ee565b6000606061053c838501856108ac565b91508360208461054c8583610980565b92610559939291906109a6565b8080601f016020809104026020016040519081016040528093929190818152602001838380828437600092018290525089815260208181526040808320546001600160a01b03168084526005909252909120549495509360ff1692506105d49150505760405162461bcd60e51b8152600401610330906109d0565b6001600160a01b03811660009081526004602052604090205460e01b6001600160e01b03198116156106e55760008184604051602001610615929190610a1b565b60405160208183030381529060405290506000836001600160a01b0316826040516106409190610a4c565b6000604051808303816000865af19150503d806000811461067d576040519150601f19603f3d011682016040523d82523d6000602084013e610682565b606091505b50509050806106e25760405162461bcd60e51b815260206004820152602660248201527f64656c656761746563616c6c20746f20636f6e7472616374416464726573732060448201526519985a5b195960d21b6064820152608401610330565b50505b50505050505050565b336001600160a01b037f000000000000000000000000000000000000000000000000000000000000000016146107665760405162461bcd60e51b815260206004820152601e60248201527f73656e646572206d7573742062652062726964676520636f6e747261637400006044820152606401610330565b565b80356001600160a01b038116811461077f57600080fd5b919050565b60006020828403121561079657600080fd5b61079f82610768565b9392505050565b60008083601f8401126107b857600080fd5b50813567ffffffffffffffff8111156107d057600080fd5b6020830191508360208285010111156107e857600080fd5b9250929050565b6000806000806060858703121561080557600080fd5b8435935061081560208601610768565b9250604085013567ffffffffffffffff81111561083157600080fd5b61083d878288016107a6565b95989497509550505050565b60005b8381101561086457818101518382015260200161084c565b83811115610873576000848401525b50505050565b6020815260008251806020840152610898816040850160208701610849565b601f01601f19169190910160400192915050565b6000602082840312156108be57600080fd5b5035919050565b80356001600160e01b03198116811461077f57600080fd5b600080600080600060a086880312156108f557600080fd5b8535945061090560208701610768565b9350610913604087016108c5565b925060608601359150610928608087016108c5565b90509295509295909350565b60008060006040848603121561094957600080fd5b83359250602084013567ffffffffffffffff81111561096757600080fd5b610973868287016107a6565b9497909650939450505050565b600082198211156109a157634e487b7160e01b600052601160045260246000fd5b500190565b600080858511156109b657600080fd5b838611156109c357600080fd5b5050820193919092039150565b6020808252602b908201527f70726f766964656420636f6e747261637441646472657373206973206e6f742060408201526a1dda1a5d195b1a5cdd195960aa1b606082015260800190565b6001600160e01b0319831681528151600090610a3e816004850160208701610849565b919091016004019392505050565b60008251610a5e818460208701610849565b919091019291505056fea264697066735822122065a226c66d5071305593c8a6ec5810224aa39be61b42c2cae9ef654e93d4dcbe64736f6c634300080b0033",
  "immutableReferences": {
    "10049": [
      {
        "length": 32,
        "start": 168
      },
      {
        "length": 32,
        "start": 1785
      }
    ]
  },
  "source": "// SPDX-License-Identifier: LGPL-3.0-only\npragma solidity 0.8.11;\npragma experimental ABIEncoderV2;\n\nimport \"../interfaces/IGenericHandler.sol\";\n\n/**\n    @title Handles generic deposits and deposit executions.\n    @author ChainSafe Systems.\n    @notice This contract is intended to be used with the Bridge contract.\n */\ncontract GenericHandler is IGenericHandler {\n    address public immutable _bridgeAddress;\n\n    // resourceID => contract address\n    mapping (bytes32 => address) public _resourceIDToContractAddress;\n\n    // contract address => resourceID\n    mapping (address => bytes32) public _contractAddressToResourceID;\n\n    // contract address => deposit function signature\n    mapping (address => bytes4) public _contractAddressToDepositFunctionSignature;\n\n    // contract address => depositer address position offset in the metadata\n    mapping (address => uint256) public _contractAddressToDepositFunctionDepositerOffset;\n\n    // contract address => execute proposal function signature\n    mapping (address => bytes4) public _contractAddressToExecuteFunctionSignature;\n\n    // token contract address => is whitelisted\n    mapping (address => bool) public _contractWhitelist;\n\n    modifier onlyBridge() {\n        _onlyBridge();\n        _;\n    }\n\n    function _onlyBridge() private view {\n        require(msg.sender == _bridgeAddress, \"sender must be bridge contract\");\n    }\n\n    /**\n        @param bridgeAddress Contract address of previously deployed Bridge.\n     */\n    constructor(\n        address          bridgeAddress\n    ) public {\n        _bridgeAddress = bridgeAddress;\n    }\n\n    /**\n        @notice First verifies {_resourceIDToContractAddress}[{resourceID}] and\n        {_contractAddressToResourceID}[{contractAddress}] are not already set,\n        then sets {_resourceIDToContractAddress} with {contractAddress},\n        {_contractAddressToResourceID} with {resourceID},\n        {_contractAddressToDepositFunctionSignature} with {depositFunctionSig},\n        {_contractAddressToDepositFunctionDepositerOffset} with {depositFunctionDepositerOffset},\n        {_contractAddressToExecuteFunctionSignature} with {executeFunctionSig},\n        and {_contractWhitelist} to true for {contractAddress}.\n        @param resourceID ResourceID to be used when making deposits.\n        @param contractAddress Address of contract to be called when a deposit is made and a deposited is executed.\n        @param depositFunctionSig Function signature of method to be called in {contractAddress} when a deposit is made.\n        @param depositFunctionDepositerOffset Depositer address position offset in the metadata, in bytes.\n        @param executeFunctionSig Function signature of method to be called in {contractAddress} when a deposit is executed.\n     */\n    function setResource(\n        bytes32 resourceID,\n        address contractAddress,\n        bytes4 depositFunctionSig,\n        uint256 depositFunctionDepositerOffset,\n        bytes4 executeFunctionSig\n    ) external onlyBridge override {\n\n        _setResource(resourceID, contractAddress, depositFunctionSig, depositFunctionDepositerOffset, executeFunctionSig);\n    }\n\n    /**\n        @notice A deposit is initiatied by making a deposit in the Bridge contract.\n        @param resourceID ResourceID used to find address of contract to be used for deposit.\n        @param depositer Address of the account making deposit in the Bridge contract.\n        @param data Consists of: {resourceID}, {lenMetaData}, and {metaData} all padded to 32 bytes.\n        @notice Data passed into the function should be constructed as follows:\n        len(data)                              uint256     bytes  0  - 32\n        data                                   bytes       bytes  64 - END\n        @notice {contractAddress} is required to be whitelisted\n        @notice If {_contractAddressToDepositFunctionSignature}[{contractAddress}] is set,\n        {metaData} is expected to consist of needed function arguments.\n        @return Returns the raw bytes returned from the call to {contractAddress}.\n     */\n    function deposit(bytes32 resourceID, address depositer, bytes calldata data) external onlyBridge returns (bytes memory) {\n        uint256      lenMetadata;\n        bytes memory metadata;\n\n        lenMetadata = abi.decode(data, (uint256));\n        metadata = bytes(data[32:32 + lenMetadata]);\n\n        address contractAddress = _resourceIDToContractAddress[resourceID];\n        uint256 depositerOffset = _contractAddressToDepositFunctionDepositerOffset[contractAddress];\n        if (depositerOffset > 0) {\n            uint256 metadataDepositer;\n            // Skipping 32 bytes of length prefix and depositerOffset bytes.\n            assembly {\n                metadataDepositer := mload(add(add(metadata, 32), depositerOffset))\n            }\n            // metadataDepositer contains 0xdepositerAddressdepositerAddressdeposite************************\n            // Shift it 12 bytes right:   0x000000000000000000000000depositerAddressdepositerAddressdeposite\n            require(depositer == address(uint160(metadataDepositer >> 96)), 'incorrect depositer in the data');\n        }\n\n        require(_contractWhitelist[contractAddress], \"provided contractAddress is not whitelisted\");\n\n        bytes4 sig = _contractAddressToDepositFunctionSignature[contractAddress];\n        if (sig != bytes4(0)) {\n            bytes memory callData = abi.encodePacked(sig, metadata);\n            (bool success, bytes memory handlerResponse) = contractAddress.call(callData);\n            require(success, \"call to contractAddress failed\");\n            return handlerResponse;\n        }\n    }\n\n    /**\n        @notice Proposal execution should be initiated when a proposal is finalized in the Bridge contract.\n        @param data Consists of {resourceID}, {lenMetaData}, and {metaData}.\n        @notice Data passed into the function should be constructed as follows:\n        len(data)                              uint256     bytes  0  - 32\n        data                                   bytes       bytes  32 - END\n        @notice {contractAddress} is required to be whitelisted\n        @notice If {_contractAddressToExecuteFunctionSignature}[{contractAddress}] is set,\n        {metaData} is expected to consist of needed function arguments.\n     */\n    function executeProposal(bytes32 resourceID, bytes calldata data) external onlyBridge {\n        uint256      lenMetadata;\n        bytes memory metaData;\n\n        lenMetadata = abi.decode(data, (uint256));\n        metaData = bytes(data[32:32 + lenMetadata]);\n\n        address contractAddress = _resourceIDToContractAddress[resourceID];\n        require(_contractWhitelist[contractAddress], \"provided contractAddress is not whitelisted\");\n\n        bytes4 sig = _contractAddressToExecuteFunctionSignature[contractAddress];\n        if (sig != bytes4(0)) {\n            bytes memory callData = abi.encodePacked(sig, metaData);\n            (bool success,) = contractAddress.call(callData);\n            require(success, \"delegatecall to contractAddress failed\");\n        }\n    }\n\n    function _setResource(\n        bytes32 resourceID,\n        address contractAddress,\n        bytes4 depositFunctionSig,\n        uint256 depositFunctionDepositerOffset,\n        bytes4 executeFunctionSig\n    ) internal {\n        _resourceIDToContractAddress[resourceID] = contractAddress;\n        _contractAddressToResourceID[contractAddress] = resourceID;\n        _contractAddressToDepositFunctionSignature[contractAddress] = depositFunctionSig;\n        _contractAddressToDepositFunctionDepositerOffset[contractAddress] = depositFunctionDepositerOffset;\n        _contractAddressToExecuteFunctionSignature[contractAddress] = executeFunctionSig;\n\n        _contractWhitelist[contractAddress] = true;\n    }\n}\n",
  "sourcePath": "/home/isaiah/codes/NFT/chainbridge/chainbridge-solidity/contracts/handlers/GenericHandler.sol",
  "compiler": {
    "name": "solc",
    "version": "0.8.11+commit.d7f03943.Emscripten.clang"
  },
  "schemaVersion": "3.4.3",
  "updatedAt": "2022-03-02T16:03:25.554Z",
  "devdoc": {
    "author": "ChainSafe Systems.",
    "kind": "dev",
    "methods": {
      "constructor": {
        "params": {
          "bridgeAddress": "Contract address of previously deployed Bridge."
        }
      },
      "deposit(bytes32,address,bytes)": {
        "params": {
          "data": "Consists of: {resourceID}, {lenMetaData}, and {metaData} all padded to 32 bytes.",
          "depositer": "Address of the account making deposit in the Bridge contract.",
          "resourceID": "ResourceID used to find address of contract to be used for deposit."
        },
        "returns": {
          "_0": "Returns the raw bytes returned from the call to {contractAddress}."
        }
      },
      "executeProposal(bytes32,bytes)": {
        "params": {
          "data": "Consists of {resourceID}, {lenMetaData}, and {metaData}."
        }
      },
      "setResource(bytes32,address,bytes4,uint256,bytes4)": {
        "params": {
          "contractAddress": "Address of contract to be called when a deposit is made and a deposited is executed.",
          "depositFunctionDepositerOffset": "Depositer address position offset in the metadata, in bytes.",
          "depositFunctionSig": "Function signature of method to be called in {contractAddress} when a deposit is made.",
          "executeFunctionSig": "Function signature of method to be called in {contractAddress} when a deposit is executed.",
          "resourceID": "ResourceID to be used when making deposits."
        }
      }
    },
    "title": "Handles generic deposits and deposit executions.",
    "version": 1
  },
  "userdoc": {
    "kind": "user",
    "methods": {
      "deposit(bytes32,address,bytes)": {
        "notice": "A deposit is initiatied by making a deposit in the Bridge contract.Data passed into the function should be constructed as follows: len(data)                              uint256     bytes  0  - 32 data                                   bytes       bytes  64 - END{contractAddress} is required to be whitelistedIf {_contractAddressToDepositFunctionSignature}[{contractAddress}] is set, {metaData} is expected to consist of needed function arguments."
      },
      "executeProposal(bytes32,bytes)": {
        "notice": "Proposal execution should be initiated when a proposal is finalized in the Bridge contract.Data passed into the function should be constructed as follows: len(data)                              uint256     bytes  0  - 32 data                                   bytes       bytes  32 - END{contractAddress} is required to be whitelistedIf {_contractAddressToExecuteFunctionSignature}[{contractAddress}] is set, {metaData} is expected to consist of needed function arguments."
      },
      "setResource(bytes32,address,bytes4,uint256,bytes4)": {
        "notice": "First verifies {_resourceIDToContractAddress}[{resourceID}] and {_contractAddressToResourceID}[{contractAddress}] are not already set, then sets {_resourceIDToContractAddress} with {contractAddress}, {_contractAddressToResourceID} with {resourceID}, {_contractAddressToDepositFunctionSignature} with {depositFunctionSig}, {_contractAddressToDepositFunctionDepositerOffset} with {depositFunctionDepositerOffset}, {_contractAddressToExecuteFunctionSignature} with {executeFunctionSig}, and {_contractWhitelist} to true for {contractAddress}."
      }
    },
    "notice": "This contract is intended to be used with the Bridge contract.",
    "version": 1
  }
}