{
  "contractName": "SafeCaster",
  "abi": [
    {
      "inputs": [
        {
          "internalType": "uint256",
          "name": "input",
          "type": "uint256"
        }
      ],
      "name": "toUint200",
      "outputs": [
        {
          "internalType": "uint200",
          "name": "",
          "type": "uint200"
        }
      ],
      "stateMutability": "pure",
      "type": "function"
    }
  ],
  "bytecode": "0x608060405234801561001057600080fd5b50610111806100206000396000f3fe6080604052348015600f57600080fd5b506004361060285760003560e01c8063720ad67414602d575b600080fd5b603c603836600460c3565b6058565b6040516001600160c81b03909116815260200160405180910390f35b60006061826067565b92915050565b6000600160c81b821060bf5760405162461bcd60e51b815260206004820152601e60248201527f76616c756520646f6573206e6f742066697420696e2032303020626974730000604482015260640160405180910390fd5b5090565b60006020828403121560d457600080fd5b503591905056fea26469706673582212200627ef0704019bad16e718497e75f0f57f17feba084f4e7ead2190c2c22d560a64736f6c634300080b0033",
  "immutableReferences": {},
  "source": "// SPDX-License-Identifier: LGPL-3.0-only\npragma solidity 0.8.11;\npragma experimental ABIEncoderV2;\n\nimport \"./utils/SafeCast.sol\";\nimport \"./handlers/HandlerHelpers.sol\";\n\ncontract NoArgument {\n    event NoArgumentCalled();\n\n    function noArgument() external {\n        emit NoArgumentCalled();\n    }\n}\n\ncontract OneArgument {\n    event OneArgumentCalled(uint256 indexed argumentOne);\n\n    function oneArgument(uint256 argumentOne) external {\n        emit OneArgumentCalled(argumentOne);\n    }\n}\n\ncontract TwoArguments {\n    event TwoArgumentsCalled(address[] argumentOne, bytes4 argumentTwo);\n\n    function twoArguments(address[] calldata argumentOne, bytes4 argumentTwo) external {\n        emit TwoArgumentsCalled(argumentOne, argumentTwo);\n    }\n}\n\ncontract ThreeArguments {\n    event ThreeArgumentsCalled(string argumentOne, int8 argumentTwo, bool argumentThree);\n\n    function threeArguments(string calldata argumentOne, int8 argumentTwo, bool argumentThree) external {\n        emit ThreeArgumentsCalled(argumentOne, argumentTwo, argumentThree);\n    }\n}\n\ncontract WithDepositer {\n    event WithDepositerCalled(address argumentOne, uint256 argumentTwo);\n\n    function withDepositer(address argumentOne, uint256 argumentTwo) external {\n        emit WithDepositerCalled(argumentOne, argumentTwo);\n    }\n}\n\ncontract SafeCaster {\n    using SafeCast for *;\n\n    function toUint200(uint input) external pure returns(uint200) {\n        return input.toUint200();\n    }\n}\n\ncontract ReturnData {\n    function returnData(string memory argument) external pure returns(bytes32 response) {\n        assembly {\n            response := mload(add(argument, 32))\n        }\n    }\n}\n\ncontract HandlerRevert is HandlerHelpers {\n    uint private _totalAmount;\n\n    constructor(\n        address          bridgeAddress\n    ) public HandlerHelpers(bridgeAddress) {\n    }\n\n    function executeProposal(bytes32, bytes calldata) external view {\n        if (_totalAmount == 0) {\n            revert('Something bad happened');\n        }\n        return;\n    }\n\n    function virtualIncreaseBalance(uint amount) external {\n        _totalAmount = amount;\n    }\n}\n\ncontract TestForwarder {\n    function execute(bytes memory data, address to, address sender) external {\n        bytes memory callData = abi.encodePacked(data, sender);\n        (bool success, ) = to.call(callData);\n        require(success, \"Relay call failed\");\n    }\n}\n\ncontract TestTarget {\n    uint public calls = 0;\n    uint public gasLeft;\n    bytes public data;\n    bool public burnAllGas;\n    fallback() external payable {\n        gasLeft = gasleft();\n        calls++;\n        data = msg.data;\n        if (burnAllGas) {\n            assert(false);\n        }\n    }\n\n    function setBurnAllGas() public {\n        burnAllGas = true;\n    }\n}\n",
  "sourcePath": "/home/isaiah/codes/NFT/chainbridge/chainbridge-solidity/contracts/TestContracts.sol",
  "compiler": {
    "name": "solc",
    "version": "0.8.11+commit.d7f03943.Emscripten.clang"
  },
  "schemaVersion": "3.4.3",
  "updatedAt": "2022-03-02T16:03:25.523Z",
  "devdoc": {
    "kind": "dev",
    "methods": {},
    "version": 1
  },
  "userdoc": {
    "kind": "user",
    "methods": {},
    "version": 1
  }
}