{
  "contractName": "TestForwarder",
  "abi": [
    {
      "inputs": [
        {
          "internalType": "bytes",
          "name": "data",
          "type": "bytes"
        },
        {
          "internalType": "address",
          "name": "to",
          "type": "address"
        },
        {
          "internalType": "address",
          "name": "sender",
          "type": "address"
        }
      ],
      "name": "execute",
      "outputs": [],
      "stateMutability": "nonpayable",
      "type": "function"
    }
  ],
  "bytecode": "0x608060405234801561001057600080fd5b506102cc806100206000396000f3fe608060405234801561001057600080fd5b506004361061002b5760003560e01c806398c0fc3414610030575b600080fd5b61004361003e366004610149565b610045565b005b6000838260405160200161005a929190610256565b60405160208183030381529060405290506000836001600160a01b0316826040516100859190610283565b6000604051808303816000865af19150503d80600081146100c2576040519150601f19603f3d011682016040523d82523d6000602084013e6100c7565b606091505b50509050806101105760405162461bcd60e51b815260206004820152601160248201527014995b185e4818d85b1b0819985a5b1959607a1b604482015260640160405180910390fd5b5050505050565b634e487b7160e01b600052604160045260246000fd5b80356001600160a01b038116811461014457600080fd5b919050565b60008060006060848603121561015e57600080fd5b833567ffffffffffffffff8082111561017657600080fd5b818601915086601f83011261018a57600080fd5b81358181111561019c5761019c610117565b604051601f8201601f19908116603f011681019083821181831017156101c4576101c4610117565b816040528281528960208487010111156101dd57600080fd5b8260208601602083013760006020848301015280975050505050506102046020850161012d565b91506102126040850161012d565b90509250925092565b6000815160005b8181101561023c5760208185018101518683015201610222565b8181111561024b576000828601525b509290920192915050565b6000610262828561021b565b60609390931b6bffffffffffffffffffffffff191683525050601401919050565b600061028f828461021b565b939250505056fea2646970667358221220e49425ae1f75a9d6cf856c132b0ff241df8304e2a200162b150d8954298b802364736f6c634300080b0033",
  "immutableReferences": {},
  "source": "// SPDX-License-Identifier: LGPL-3.0-only\npragma solidity 0.8.11;\npragma experimental ABIEncoderV2;\n\nimport \"./utils/SafeCast.sol\";\nimport \"./handlers/HandlerHelpers.sol\";\n\ncontract NoArgument {\n    event NoArgumentCalled();\n\n    function noArgument() external {\n        emit NoArgumentCalled();\n    }\n}\n\ncontract OneArgument {\n    event OneArgumentCalled(uint256 indexed argumentOne);\n\n    function oneArgument(uint256 argumentOne) external {\n        emit OneArgumentCalled(argumentOne);\n    }\n}\n\ncontract TwoArguments {\n    event TwoArgumentsCalled(address[] argumentOne, bytes4 argumentTwo);\n\n    function twoArguments(address[] calldata argumentOne, bytes4 argumentTwo) external {\n        emit TwoArgumentsCalled(argumentOne, argumentTwo);\n    }\n}\n\ncontract ThreeArguments {\n    event ThreeArgumentsCalled(string argumentOne, int8 argumentTwo, bool argumentThree);\n\n    function threeArguments(string calldata argumentOne, int8 argumentTwo, bool argumentThree) external {\n        emit ThreeArgumentsCalled(argumentOne, argumentTwo, argumentThree);\n    }\n}\n\ncontract WithDepositer {\n    event WithDepositerCalled(address argumentOne, uint256 argumentTwo);\n\n    function withDepositer(address argumentOne, uint256 argumentTwo) external {\n        emit WithDepositerCalled(argumentOne, argumentTwo);\n    }\n}\n\ncontract SafeCaster {\n    using SafeCast for *;\n\n    function toUint200(uint input) external pure returns(uint200) {\n        return input.toUint200();\n    }\n}\n\ncontract ReturnData {\n    function returnData(string memory argument) external pure returns(bytes32 response) {\n        assembly {\n            response := mload(add(argument, 32))\n        }\n    }\n}\n\ncontract HandlerRevert is HandlerHelpers {\n    uint private _totalAmount;\n\n    constructor(\n        address          bridgeAddress\n    ) public HandlerHelpers(bridgeAddress) {\n    }\n\n    function executeProposal(bytes32, bytes calldata) external view {\n        if (_totalAmount == 0) {\n            revert('Something bad happened');\n        }\n        return;\n    }\n\n    function virtualIncreaseBalance(uint amount) external {\n        _totalAmount = amount;\n    }\n}\n\ncontract TestForwarder {\n    function execute(bytes memory data, address to, address sender) external {\n        bytes memory callData = abi.encodePacked(data, sender);\n        (bool success, ) = to.call(callData);\n        require(success, \"Relay call failed\");\n    }\n}\n\ncontract TestTarget {\n    uint public calls = 0;\n    uint public gasLeft;\n    bytes public data;\n    bool public burnAllGas;\n    fallback() external payable {\n        gasLeft = gasleft();\n        calls++;\n        data = msg.data;\n        if (burnAllGas) {\n            assert(false);\n        }\n    }\n\n    function setBurnAllGas() public {\n        burnAllGas = true;\n    }\n}\n",
  "sourcePath": "/home/isaiah/codes/NFT/chainbridge/chainbridge-solidity/contracts/TestContracts.sol",
  "compiler": {
    "name": "solc",
    "version": "0.8.11+commit.d7f03943.Emscripten.clang"
  },
  "schemaVersion": "3.4.3",
  "updatedAt": "2022-03-02T16:03:25.525Z",
  "devdoc": {
    "kind": "dev",
    "methods": {},
    "version": 1
  },
  "userdoc": {
    "kind": "user",
    "methods": {},
    "version": 1
  }
}