{
  "contractName": "ThreeArguments",
  "abi": [
    {
      "anonymous": false,
      "inputs": [
        {
          "indexed": false,
          "internalType": "string",
          "name": "argumentOne",
          "type": "string"
        },
        {
          "indexed": false,
          "internalType": "int8",
          "name": "argumentTwo",
          "type": "int8"
        },
        {
          "indexed": false,
          "internalType": "bool",
          "name": "argumentThree",
          "type": "bool"
        }
      ],
      "name": "ThreeArgumentsCalled",
      "type": "event"
    },
    {
      "inputs": [
        {
          "internalType": "string",
          "name": "argumentOne",
          "type": "string"
        },
        {
          "internalType": "int8",
          "name": "argumentTwo",
          "type": "int8"
        },
        {
          "internalType": "bool",
          "name": "argumentThree",
          "type": "bool"
        }
      ],
      "name": "threeArguments",
      "outputs": [],
      "stateMutability": "nonpayable",
      "type": "function"
    }
  ],
  "bytecode": "0x608060405234801561001057600080fd5b5061019d806100206000396000f3fe608060405234801561001057600080fd5b506004361061002b5760003560e01c80639280b90514610030575b600080fd5b61004361003e366004610088565b610045565b005b7fd589183661fa75f94e2db32f4eb7ebb50f4154c160e15eb43f772a46f360a3a88484848460405161007a9493929190610128565b60405180910390a150505050565b6000806000806060858703121561009e57600080fd5b843567ffffffffffffffff808211156100b657600080fd5b818701915087601f8301126100ca57600080fd5b8135818111156100d957600080fd5b8860208285010111156100eb57600080fd5b60209283019650945050850135600081900b811461010857600080fd5b91506040850135801515811461011d57600080fd5b939692955090935050565b606081528360608201528385608083013760006080858301810182905293900b60208201529015156040820152601f909201601f19169091010191905056fea26469706673582212204dbfac18a1ad324583d3a058979f5a8a4d49a7dbafad4f95e9f7f648c39684f264736f6c634300080b0033",
  "immutableReferences": {},
  "source": "// SPDX-License-Identifier: LGPL-3.0-only\npragma solidity 0.8.11;\npragma experimental ABIEncoderV2;\n\nimport \"./utils/SafeCast.sol\";\nimport \"./handlers/HandlerHelpers.sol\";\n\ncontract NoArgument {\n    event NoArgumentCalled();\n\n    function noArgument() external {\n        emit NoArgumentCalled();\n    }\n}\n\ncontract OneArgument {\n    event OneArgumentCalled(uint256 indexed argumentOne);\n\n    function oneArgument(uint256 argumentOne) external {\n        emit OneArgumentCalled(argumentOne);\n    }\n}\n\ncontract TwoArguments {\n    event TwoArgumentsCalled(address[] argumentOne, bytes4 argumentTwo);\n\n    function twoArguments(address[] calldata argumentOne, bytes4 argumentTwo) external {\n        emit TwoArgumentsCalled(argumentOne, argumentTwo);\n    }\n}\n\ncontract ThreeArguments {\n    event ThreeArgumentsCalled(string argumentOne, int8 argumentTwo, bool argumentThree);\n\n    function threeArguments(string calldata argumentOne, int8 argumentTwo, bool argumentThree) external {\n        emit ThreeArgumentsCalled(argumentOne, argumentTwo, argumentThree);\n    }\n}\n\ncontract WithDepositer {\n    event WithDepositerCalled(address argumentOne, uint256 argumentTwo);\n\n    function withDepositer(address argumentOne, uint256 argumentTwo) external {\n        emit WithDepositerCalled(argumentOne, argumentTwo);\n    }\n}\n\ncontract SafeCaster {\n    using SafeCast for *;\n\n    function toUint200(uint input) external pure returns(uint200) {\n        return input.toUint200();\n    }\n}\n\ncontract ReturnData {\n    function returnData(string memory argument) external pure returns(bytes32 response) {\n        assembly {\n            response := mload(add(argument, 32))\n        }\n    }\n}\n\ncontract HandlerRevert is HandlerHelpers {\n    uint private _totalAmount;\n\n    constructor(\n        address          bridgeAddress\n    ) public HandlerHelpers(bridgeAddress) {\n    }\n\n    function executeProposal(bytes32, bytes calldata) external view {\n        if (_totalAmount == 0) {\n            revert('Something bad happened');\n        }\n        return;\n    }\n\n    function virtualIncreaseBalance(uint amount) external {\n        _totalAmount = amount;\n    }\n}\n\ncontract TestForwarder {\n    function execute(bytes memory data, address to, address sender) external {\n        bytes memory callData = abi.encodePacked(data, sender);\n        (bool success, ) = to.call(callData);\n        require(success, \"Relay call failed\");\n    }\n}\n\ncontract TestTarget {\n    uint public calls = 0;\n    uint public gasLeft;\n    bytes public data;\n    bool public burnAllGas;\n    fallback() external payable {\n        gasLeft = gasleft();\n        calls++;\n        data = msg.data;\n        if (burnAllGas) {\n            assert(false);\n        }\n    }\n\n    function setBurnAllGas() public {\n        burnAllGas = true;\n    }\n}\n",
  "sourcePath": "/home/isaiah/codes/NFT/chainbridge/chainbridge-solidity/contracts/TestContracts.sol",
  "compiler": {
    "name": "solc",
    "version": "0.8.11+commit.d7f03943.Emscripten.clang"
  },
  "schemaVersion": "3.4.3",
  "updatedAt": "2022-03-02T16:03:25.531Z",
  "devdoc": {
    "kind": "dev",
    "methods": {},
    "version": 1
  },
  "userdoc": {
    "kind": "user",
    "methods": {},
    "version": 1
  }
}